:1009C900425342203D2000577269746520425342C8
:1009D900203D2030783535005772697465204253BF
:1009E90042203D203078464600534256203D2000A3
:1009F900577269746520534256203D203078414131
:100A09000045726173652053425600535342203D9D
:100A19002000577269746520535342203D206E6F40
:100A29005F736563757269747900577269746520BB
:100A3900535342203D2077725F7365637572697401
:100A49007900577269746520535342203D207264BE
:100A59005F77725F736563757269747900454220C7
:100A69003D20005772697465204542203D2035417B
:100A7900005772697465204542203D204646006D45
:100A8900616E756661637475726572203D200064DC
:100A9900657669636520696431203D200064657667
:100AA90069636520696432203D2000646576696365
:100AB9006520696433203D200020626F6F742076C1
:100AC900657273696F6E203D2000485342203D20B6
:100AD90000736574206269742058322000636C6564
:100AE9006172206269742058322000736574206233
:100AF900697420424C4A422000636C65617220622D
:100B0900697420424C4A4220004254435F31203DDF
:100B190020005772697465204254435F31203D209B
:100B29003030004254435F32203D200057726974CF
:100B390065204254435F32203D20307830340042F2
:100B490054435F33203D2000577269746520425435
:100B5900435F33203D2030783336004E4E42203DEE
:100B690020005772697465204E4E42203D2030782E
:100B790030300043524953203D2000577269746553
:100B89002043524953203D2030783030007265614E
:100B99006420646174612061742030783746303094
:100BA900203A20005772697465204461746120619C
:100BB9007420616464203078374630302074686569
:100BC9002076616C75652030784141200A005772A2
:100BD900697465204461746120706167652061747E
:100BE90020307831303030203D2030783535200ABA
:100BF90000726561642064617461206174203078D9
:100C0900313030302D307831303130203A200A00FF
:100C19005265616420454550524F4D2066726F6D93
:100C2900203078303020746F2030783130200A003D
:100C390020004572726F7220627573790046696C83
:0F0C49006C20454550524F4D20307835350A000C
:100E5100759850438920758DF3758BF353878043C3
:050E61008840D2992237
:100E3800EFC39400400CEFD394095006EF2430FE22
:080E48008004EF2437FEAF0621
:010E5000227F
:080E8A00540FFF120E38AC07F3
:080E92003099FDC2998F9922ED
:050E9A00900102EFF0E1
:020E9F00AD079D
:090EA100EDC4120E8AED020E8A66
:080E6600900102EFF0120E9F53
:0A0E6E007F0D120E927F0A020E9211
:10000300120E517BFF7A0979C91206CFE4FD7F05F1
:10001300120E78120E667BFF7A0979D01206CFE4AE
:10002300FB7D557F04120DE1900102EFF0120E6E7D
:100033007BFF7A0979C91206CFE4FD7F05120E789A
:10004300120E667BFF7A0979E11206CFE4FB7DFF8E
:100053007F04120DE1900102EFF0120E6E7BFF7A26
:100063000979C91206CFE4FD7F05120E78120E66D8
:100073007BFF7A0979F21206CF7D017F05120E7894
:10008300120E667BFF7A0979F91206CF7B017DAAEE
:100093007F04120DE1900102EFF0120E6E7BFF7AE6
:1000A3000979F21206CF7D017F05120E78120E66D2
:1000B3007BFF7A0A790A1206CF7B017DFF7F041248
:1000C3000DE1900102EFF0120E6E7BFF7A0979F2D7
:1000D3001206CF7D017F05120E78120E667BFF7A22
:1000E3000A79141206CF7D057F05120E78120E666B
:1000F3007BFF7A0A791B1206CF7B057DFF7F0412F3
:100103000DE1900102EFF0120E6E7BFF7A0A791473
:100113001206CF7D057F05120E78120E667BFF7ADD
:100123000A79331206CF7B057DFE7F04120DE19021
:100133000102EFF0120E6E7BFF7A0A79141206CFDA
:100143007D057F05120E78120E667BFF7A0A794BC6
:100153001206CF7B057DFC7F04120DE1900102EFB7
:10016300F0120E6E7BFF7A0A79141206CF7D057F9B
:1001730005120E78120E667BFF7A0A791B1206CFE0
:100183007B057DFF7F04120DE1900102EFF0120E5B
:100193006E7BFF7A0A79141206CF7D057F05120E56
:1001A30078120E667BFF7A0A79661206CF7D067F88
:1001B30005120E78120E667BFF7A0A796C1206CF4F
:1001C3007B067D5A7F04120DE1900102EFF0120EBF
:1001D3006E7BFF7A0A79661206CF7D067F05120EC3
:1001E30078120E667BFF7A0A797A1206CF7B067D38
:1001F300FF7F04120DE1900102EFF0120E6E7BFF00
:100203007A0A79661206CF7D067F05120E78120EE2
:10021300667BFF7A0A79881206CF7D307F05120E3E
:1002230078120E667BFF7A0A79981206CF7D317FAA
:1002330005120E78120E667BFF7A0A79A61206CF94
:100243007D607F05120E78120E667BFF7A0A79B401
:100253001206CF7D617F05120E78120E667BFF7A40
:100263000A79C21206CFE4FD7F0E120E78120E66D3
:100273007BFF7A0A79D31206CFE4FD7F08120E784A
:10028300120E667BFF7A0A79DA1206CF7D807F80B1
:10029300120D64900102EFF0120E6E7BFF7A0A7961
:1002A300D31206CFE4FD7F08120E78120E667BFF91
:1002B3007A0A79E61206CFE4FD7F80120D6490017D
:1002C30002EFF0120E6E7BFF7A0A79D31206CFE4A7
:1002D300FD7F08120E78120E667BFF7A0A79F412FC
:1002E30006CF7D407F40120D64900102EFF0120EA5
:1002F3006E7BFF7A0A79D31206CFE4FD7F08120ED4
:1003030078120E667BFF7A0B79021206CFE4FD7F2B
:1003130040120D64900102EFF0120E6E7BFF7A0A19
:1003230079D31206CFE4FD7F08120E78120E667B96
:10033300FF7A0A79F41206CF7D407F40120D649054
:100343000102EFF0120E6E7BFF7A0A79D31206CF09
:10035300E4FD7F08120E78120E667BFF7A0A79DAC3
:100363001206CF7D807F80120D64900102EFF012A0
:100373000E6E7BFF7A0A79D31206CFE4FD7F081253
:100383000E78120E667BFF7A0B79121206CF7D1C54
:100393007F05120E78120E667BFF7A0B791B12060D
:1003A300CF7B1CE4FD7F04120DE1900102EFF012FC
:1003B3000E6E7BFF7A0B79121206CF7D1C7F05121E
:1003C3000E78120E667BFF7A0B792C1206CF7D1DF9
:1003D3007F05120E78120E667BFF7A0B79351206B3
:1003E300CF7B1D7D047F04120DE1900102EFF0121B
:1003F3000E6E7BFF7A0B792C1206CF7D1D7F0512C3
:100403000E78120E667BFF7A0B79481206CF7D1E9B
:100413007F05120E78120E667BFF7A0B7951120656
:10042300CF7B1E7D367F04120DE1900102EFF012A7
:100433000E6E7BFF7A0B79481206CF7D1E7F051265
:100443000E78120E667BFF7A0B79641206CF7D1F3E
:100453007F05120E78120E667BFF7A0B796B1206FC
:10046300CF7B1FE4FD7F04120DE1900102EFF01238
:100473000E6E7BFF7A0B79641206CF7D1F7F051208
:100483000E78120E667BFF7A0B797C1206CF7D20E5
:100493007F05120E78120E667BFF7A0B79841206A3
:1004A300CF7B20E4FD7F04120DE1900102EFF012F7
:1004B3000E6E7BFF7A0B797C1206CF7D207F0512AF
:1004C3000E78120E667BFF7A0B79961206CF7F00A9
:1004D3007E7F120EC3120E667BFF7A0B79AD120676
:1004E300CF7DAA7F007E7F120DBF7BFF7A0B7996AB
:1004F3001206CF7F007E7F120EC3120E66E49001B8
:1005030000F0A3F0900101E02400F582E43400F54B
:10051300837455F0900101E004F07006900100E04F
:1005230004F0900100E07004A3E0641070D67BFF38
:100533007A0B79D71206CF7C007D007B107F007E7B
:1005430010120CF67BFF7A0B79FA1206CF9001009A
:100553007410F0A3E4F0900100E0FEA3E0FFC39465
:1005630010EE94105016120EC3120E9A900101E071
:1005730004F070E2900100E004F080DA120E6E7B6A
:10058300FF7A0C79191206CF120EDBEF703590014A
:1005930000F0A3F0900100E0FEA3E0FFC39410EE8F
:1005A30094005028120EAA120E9A7BFF7A0C793906
:1005B3001206CF900101E004F070D9900100E0042D
:1005C300F080D17BFF7A0C793B1206CF120E6E7B43
:1005D300FF7A0C79461206CFE4900100F0A3F09065
:1005E3000100E0FEA3E0FFC39410EE940050207DD1
:1005F30055120E01900102EFF0120EDBEF70FA902C
:100603000101E004F070D8900100E004F080D07B99
:10061300FF7A0C79191206CF120EDBEF70359001B9
:1006230000F0A3F0900100E0FEA3E0FFC39410EEFE
:1006330094005028120EAA120E9A7BFF7A0C793975
:100643001206CF900101E004F070D9900100E0049C
:10065300F080D17BFF7A0C793B1206CF120E6E80AD
:01066300FE98
:100E78008F1CAF058F1F43A22012FFC053A2DFAF04
:020E88001D2229
:100DE100A2AF9200C2AF8F1CAF038F1FAF058F1D43
:0F0DF10043A22012FFC053A2DFA20092AF7F01E6
:010E000022CF
:080EC3008F828E83E493FF226D
:040DBF008F828E830E
:100DC300A2AF9200C2AF751C0D75D108EDF043A21E
:0D0DD3002012FFC053A2DFA20092AFAF1D9F
:010DE00022F0
:080CF600900103EEF0A3EFF002
:100CFE00AE04AF058E0D8F0E900103E0FEA3E08EC5
:100D0E000BF50CAF038F0AA2AF9200C2AF751C0D8C
:100D1E00E4F508E508C3950A502C850E82850D83EF
:100D2E00E0F50975D108850C82850B83E509F0E4A1
:100D3E00F5D10508050EE50E7002050D050CE50C46
:100D4E0070D1050B80CD43A22012FFC053A2DFA2AB
:050D5E000092AFAF1D83
:010D6300226D
:080D6400900103EFF0A3EDF094
:100D6C00A2AF9200C2AFE4FD7F08120E789001038F
:100D7C00E0F45FFFA3E04FF51D751C0743A22012A2
:0B0D8C00FFC053A2DFA20092AF7F0166
:010D97002239
:100E1D00A2AF9209C2AFE4F51C8F1E43A22012FFB0
:0A0E2D00C053A2DFA20992AF7F01BB
:010E37002298
:060EDB00E5D25401FF22E4
:040EAA008F828E8322
:080EAE0075D202E0FFE4F5D269
:010EB6002219
:040E01008F828E83CB
:100E0500A2AF9200C2AF75D202EDF075D25075D285
:070E1500A0A20092AF7F01D3
:010E1C0022B3
:080ECB00C2AF43A22002FF00A8
:080ED300C2AF43A22002F800A7
:03000000020EB736
:0C0EB700787FE4F6D8FD7581210200036D
:10066400E5082406F582E43401F583E005082290C8
:100674000103300703900106E475F001120CB00287
:100684000C582000E97F2ED2008018EF540F2490DC
:10069400D43440D4FF30040BEF24BFB41A00500309
:1006A4002461FFE50960021509050CE50C700205DB
:1006B4000B30070E900103E475F001120CB0EF0249
:1006C4000C9E020D987403D2078003E4C207F50858
:1006D400900103120CC7E4F509F50BF50CE509606C
:1006E400077F201206A780F5750AFFC201C200C267
:1006F40002C203C205C206C208120673FF700D309F
:1007040007057F001206B8AF0CAE0B22B4255FC2FA
:10071400D5C204120673FF24D0B40A00501A75F02F
:100724000A780930D50508B6FF0106C6A426F620C6
:10073400D5047002D20380D924CFB41A00EF500438
:10074400C2E5D2040208B9D20180C6D20080C0D268
:100754000280BCD2D580BAD20580B47F201206A70D
:100764002002077401B5090040F1120664FF120665
:10077400A70206E1D208D2068095120664FB12068F
:1007840064FA120664F94A4B7006798A7A097BFF87
:1007940020022EE509602A7E008E82758300120CE9
:1007A4007160060EEE650A70F0C2D5EBC0E0EAC0D7
:1007B400E0E9C0E0EE120900D0E0F9D0E0FAD0E0C0
:1007C400FB120C58FF60AAEBC0E0EAC0E0E9C0E00D
:1007D4001206A7D0E02401F9D0E03400FAD0E0FBFF
:1007E400E50A0460DCD50AD980877BFF7A0879FCA6
:1007F400D202809C791080027908C206C20880085F
:10080400D2D5790A8004790AC2D5E50A047002F5C2
:100814000AE4FAFDFEFF120664FC7B0820011312B1
:100824000664FD7B1030000A120664FE120664FFA3
:100834007B20EC3382D592D55013C3E43000069F5D
:10084400FFE49EFEE42001039DFDE49CFCE4CBF860
:10085400C201EC700CCFCECDCCE824F8F870F38054
:1008640017C3EF33FFEE33FEED33FDEC33FCEB3314
:10087400FB994002FB0FD8E9EB300105F8D0E0C446
:1008840048B201C0E00AEC4D4E4F78207B0070C2A4
:10089400EAB50A0040BCC0E0120902D0F0D0E02062
:1008A4000104C4C0E0C4B201C0F0120690D0F0D577
:1008B400F0EB0206E1120CD0077E5307F858074FFD
:1008C4004C074B4207FC4F0804440804490764439F
:1008D400080A5507EE4607EE4507EE4709AA5007F2
:1008E400532D07572E077A2B075B23077820099887
:1008F4002A071348000007723F3F3F00790AA2D538
:10090400200314300509B910020404B9080104A233
:0E091400D52006025001042002689202B509A7
:10092200005034C0E07F203003197F30A2027206EB
:100932007205500F120959C202C206C205C2087FCF
:1009420030800F300503E9C0E01206A7300503D05E
:10095200E0F9D0E0B509CC3005177F30B9100C12A0
:1009620006A77F583004077F788003B90803120670
:10097200A73002057F2D0206A77F202008F87F2BD3
:100982002006F322920280CF286E756C6C29002D0E
:1009920050434958D2011206643001F8C201780965
:1009A20030D50108F60207131206642403B40500C9
:1009B2004001E490099193120698743A120698D273
:0709C200037509040207F8A8
:100C5800BB010689828A83E0225002E722BBFE029A
:090C6800E32289828A83E49322CD
:100C7100BB010CE58229F582E5833AF583E0225038
:100C810006E92582F8E622BBFE06E92582F8E22282
:0D0C9100E58229F582E5833AF583E493229C
:100C9E00BB010689828A83F0225002F722BBFE0135
:020CAE00F3222F
:100CB000F8E0FBA3A3E0F925F0F0E58215827002CD
:070CC0001583E0FA38F02271
:090CC700EBF0A3EAF0A3E9F0222E
:100CD000D083D082F8E4937012740193700DA3A3B3
:100CE00093F8740193F5828883E4737402936860C7
:060CF000EFA3A3A380DFC7
:100D9800EFB40A07740D120DA3740A309811A899BC
:100DA800B8130CC2983098FDA899C298B811F630BB
:070DB80099FDC299F5992293
:00000001FF
