:10094300425342203D20005772697465204253424E
:10095300203D203078353500577269746520425345
:1009630042203D203078464600534256203D200029
:10097300577269746520534256203D2030784141B7
:100983000045726173652053425600535342203D24
:100993002000577269746520535342203D206E6FC7
:1009A3005F73656375726974790057726974652042
:1009B300535342203D2077725F7365637572697488
:1009C3007900577269746520535342203D20726445
:1009D3005F77725F7365637572697479004542204E
:1009E3003D20005772697465204542203D20354102
:1009F300005772697465204542203D204646006DCC
:100A0300616E756661637475726572203D20006462
:100A1300657669636520696431203D2000646576ED
:100A230069636520696432203D20006465766963EB
:100A33006520696433203D200020626F6F74207647
:100A4300657273696F6E203D2000485342203D203C
:100A530000736574206269742058322000636C65EA
:100A630061722062697420583220007365742062B9
:100A7300697420424C4A422000636C6561722062B3
:100A8300697420424C4A4220004254435F31203D66
:100A930020005772697465204254435F31203D2022
:100AA3003030004254435F32203D20005772697456
:100AB30065204254435F32203D2030783034004279
:100AC30054435F33203D20005772697465204254BC
:100AD300435F33203D2030783336004E4E42203D75
:100AE30020005772697465204E4E42203D203078B5
:100AF30030300043524953203D20005772697465DA
:100B03002043524953203D203078303000726561D4
:100B1300642064617461206174203078374630301A
:100B2300203A200057726974652044617461206122
:100B330074206164642030783746303020746865EF
:100B43002076616C75652030784141200A00577228
:100B53006974652044617461207061676520617404
:100B630020307831303030203D2030783535200A40
:100B7300007265616420646174612061742030785F
:100B8300313030302D307831303130203A200A0086
:100B93005265616420454550524F4D2066726F6D1A
:100BA300203078303020746F2030783130200A00C4
:100BB30020004572726F7220627573790046696C0A
:0F0BC3006C20454550524F4D20307835350A0093
:100DB100759850438920758DF3758BF35387804364
:050DC1008840D29922D8
:100D7F00EFC39400400CEFD394095006EF2430FEDC
:080D8F008004EF2437FEAF06DB
:010D97002239
:080DFE003099FDC2998F992282
:020D9800AD07A5
:100D9A00EDC4540FFF120D7FAC07120DFEED540F78
:070DAA00FF120D7F020DFE98
:050DD6008F24120D98AE
:0A0DDB007F0D120DFE7F0A020DFECF
:10000300120DB17BFF7A097943120649E4FD7F059E
:10001300120DC6120DD67BFF7A09794A120649E4FE
:10002300FB7D557F04120D2C8F24120DDB7BFF7A91
:10003300097943120649E4FD7F05120DC6120DD658
:100043007BFF7A09795B120649E4FB7DFF7F04128B
:100053000D2C8F24120DDB7BFF7A0979431206499D
:10006300E4FD7F05120DC6120DD67BFF7A09796C6C
:100073001206497D017F05120DC6120DD67BFF7A4C
:100083000979731206497B017DAA7F04120D2C8F17
:1000930024120DDB7BFF7A09796C1206497D017FFF
:1000A30005120DC6120DD67BFF7A09798412064913
:1000B3007B017DFF7F04120D2C8F24120DDB7BFF50
:1000C3007A09796C1206497D017F05120DC6120D5E
:1000D300D67BFF7A09798E1206497D057F05120DBD
:1000E300C6120DD67BFF7A0979951206497B057DE9
:1000F300FF7F04120D2C8F24120DDB7BFF7A09790D
:100103008E1206497D057F05120DC6120DD67BFFA3
:100113007A0979AD1206497B057DFE7F04120D2C09
:100123008F24120DDB7BFF7A09798E1206497D0538
:100133007F05120DC6120DD67BFF7A0979C512060B
:10014300497B057DFC7F04120D2C8F24120DDB7B74
:10015300FF7A09798E1206497D057F05120DC612B5
:100163000DD67BFF7A0979951206497B057DFF7FC2
:1001730004120D2C8F24120DDB7BFF7A09798E126A
:1001830006497D057F05120DC6120DD67BFF7A0940
:1001930079E01206497D067F05120DC6120DD67B46
:1001A300FF7A0979E61206497B067D5A7F04120D10
:1001B3002C8F24120DDB7BFF7A0979E01206497D2F
:1001C300067F05120DC6120DD67BFF7A0979F4124C
:1001D30006497B067DFF7F04120D2C8F24120DDB55
:1001E3007BFF7A0979E01206497D067F05120DC669
:1001F300120DD67BFF7A0A79021206497D307F05FC
:10020300120DC6120DD67BFF7A0A79121206497DAA
:10021300317F05120DC6120DD67BFF7A0A792012A3
:1002230006497D607F05120DC6120DD67BFF7A0A43
:10023300792E1206497D617F05120DC6120DD67BFC
:10024300FF7A0A793C120649E4FD7F0E120DC612AD
:100253000DD67BFF7A0A794D120649E4FD7F081219
:100263000DC6120DD67BFF7A0A79541206497D809A
:100273007F80120CB58F24120DDB7BFF7A0A794D38
:10028300120649E4FD7F08120DC6120DD67BFF7AD4
:100293000A7960120649E4FD7F80120CB58F24129F
:1002A3000DDB7BFF7A0A794D120649E4FD7F0812C4
:1002B3000DC6120DD67BFF7A0A796E1206497D4070
:1002C3007F40120CB58F24120DDB7BFF7A0A794D28
:1002D300120649E4FD7F08120DC6120DD67BFF7A84
:1002E3000A797C120649E4FD7F40120CB58F241273
:1002F3000DDB7BFF7A0A794D120649E4FD7F081274
:100303000DC6120DD67BFF7A0A796E1206497D401F
:100313007F40120CB58F24120DDB7BFF7A0A794DD7
:10032300120649E4FD7F08120DC6120DD67BFF7A33
:100333000A79541206497D807F80120CB58F2412EE
:100343000DDB7BFF7A0A794D120649E4FD7F081223
:100353000DC6120DD67BFF7A0A798C1206497D1CD5
:100363007F05120DC6120DD67BFF7A0A7995120608
:10037300497B1CE4FD7F04120D2C8F24120DDB7BC3
:10038300FF7A0A798C1206497D1C7F05120DC6126D
:100393000DD67BFF7A0A79A61206497D1D7F0512C9
:1003A3000DC6120DD67BFF7A0A79AF1206497B1D63
:1003B3007D047F04120D2C8F24120DDB7BFF7A0A40
:1003C30079A61206497D1D7F05120DC6120DD67B37
:1003D300FF7A0A79C21206497D1E7F05120DC612E5
:1003E3000DD67BFF7A0A79CB1206497B1E7D367FB9
:1003F30004120D2C8F24120DDB7BFF7A0A79C212B3
:1004030006497D1E7F05120DC6120DD67BFF7A0AA3
:1004130079DE1206497D1F7F05120DC6120DD67BAC
:10042300FF7A0A79E51206497B1FE4FD7F04120D6A
:100433002C8F24120DDB7BFF7A0A79DE1206497DAD
:100443001F7F05120DC6120DD67BFF7A0A79F612AD
:1004530006497D207F05120DC6120DD67BFF7A0A51
:1004630079FE1206497B20E4FD7F04120D2C8F24B4
:10047300120DDB7BFF7A0A79F61206497D207F0590
:10048300120DC6120DD67BFF7A0B79101206497F27
:10049300007E7F120E06120DD67BFF7A0B79271290
:1004A30006497DAA7F007E7F120D0A7BFF7A0B79B6
:1004B300101206497F007E7F120E06120DD6E4F558
:1004C30022F52374002523F582E43400F583745563
:1004D300F00523E523700205226410452270E47BB6
:1004E300FF7A0B79511206497C007D007B107F0057
:1004F3007E10120C607BFF7A0B7974120649752209
:1005030010752300AE22AF23120E068F24120D980E
:100513000523E52370020522C39410E522941040BD
:10052300E3120DDB7BFF7A0B7993120649120E1E41
:10053300EF702CF522F523AE22AF23120DE58F24A5
:10054300120D987BFF7A0B79B31206490523E52335
:1005530070020522C39410E522940040DA80097BDF
:10056300FF7A0B79B5120649120DDB7BFF7A0B7903
:10057300C0120649E4F522F523AE22AF237D5512BE
:100583000D488F24120E1EEF70FA0523E523700227
:100593000522C39410E522940040DE7BFF7A0B7999
:1005A30093120649120E1EEF702CF522F523AE228C
:1005B300AF23120DE58F24120D987BFF7A0B79B3CD
:1005C3001206490523E52370020522C39410E52290
:1005D300940040DA80097BFF7A0B79B51206491241
:0405E3000DDB80FEAE
:100DC6008F1C8D1F43A22012FFC053A2DFAF1D222E
:100D2C00A2AF9200C2AF8F1C8B1F8D1D43A220124D
:0B0D3C00FFC053A2DFA20092AF7F01B6
:010D47002289
:080E06008F828E83E493FF222A
:040D0A008F828E83C3
:100D0E00A2AF9200C2AF751C0D75D108EDF043A2D3
:0D0D1E002012FFC053A2DFA20092AFAF1D54
:010D2B0022A5
:040C60008E258F2628
:100C6400AE04AF058E278F28AE25AF26A903A2AF09
:100C74009200C2AF751C0DE4FDEDC3995023852885
:100C840082852783E0FC75D1088F828E83F0E4F59A
:100C9400D10D0528E528700205270FBF00010E803D
:100CA400D843A22012FFC053A2DFA20092AFAF1D0F
:010CB400221D
:040CB5008F258D26D4
:100CB900A2AF9200C2AFE4FD7F08120DC6E525F48C
:100CC9005207E5264FF51D751C0743A22012FFC0E8
:090CD90053A2DFA20092AF7F01DB
:010CE20022EF
:100D6400A2AF9209C2AFE4F51C8F1E43A22012FF6A
:0A0D7400C053A2DFA20992AF7F0175
:010D7E002252
:060E1E00E5D25401FF22A1
:040DE5008F828E83E8
:080DE90075D202E0FFE4F5D22F
:010DF10022DF
:040D48008F828E8385
:100D4C00A2AF9200C2AF75D202EDF075D25075D23F
:070D5C00A0A20092AF7F018D
:010D6300226D
:080E0E00C2AF43A22002FF0065
:080E1600C2AF43A22002F80064
:03000000020DF2FC
:0C0DF200787FE4F6D8FD7581380200031C
:1005E700E5342428F8E605342278253007027828F0
:1005F700E475F001120C2A020BD22000EB7F2ED2F9
:10060700008018EF540F2490D43440D4FF30040BEB
:10061700EF24BFB41A0050032461FFE535600215CB
:10062700350538E5387002053730070D7825E4754C
:10063700F001120C2AEF020C18020CE37403D20724
:100647008003E4C207F5348B258A268927E4F5352C
:10065700F537F538E53560077F2012062280F575F6
:1006670036FFC201C200C202C203C205C206C208E7
:100677001205F0FF700D3007057F00120633AF3803
:10068700AE3722B4255FC2D5C2041205F0FF24D0CD
:10069700B40A00501A75F00A783530D50508B6FF48
:1006A7000106C6A426F620D5047002D20380D924F9
:1006B700CFB41A00EF5004C2E5D204020833D201C6
:1006C70080C6D20080C0D20280BCD2D580BAD20503
:1006D70080B47F201206222002077401B53500403E
:1006E700F11205E7FF12062202065BD208D2068046
:1006F700951205E7FB1205E7FA1205E7F94A4B7071
:100707000679047A097BFF20022EE535602A7E00F0
:100717008E82758300120BEB60060EEE653670F065
:10072700C2D5EBC0E0EAC0E0E9C0E0EE12087AD03B
:10073700E0F9D0E0FAD0E0FB120BD2FF60AAEBC0E1
:10074700E0EAC0E0E9C0E0120622D0E02401F9D0D7
:10075700E03400FAD0E0FBE5360460DCD536D9801A
:10076700877BFF7A087976D202809C79108002799C
:1007770008C206C2088008D2D5790A8004790AC25D
:10078700D5E536047002F536E4FAFDFEFF1205E7FB
:10079700FC7B082001131205E7FD7B1030000A12CD
:1007A70005E7FE1205E7FF7B20EC3382D592D55093
:1007B70013C3E43000069FFFE49EFEE42001039D7F
:1007C700FDE49CFCE4CBF8C201EC700CCFCECDCCA1
:1007D700E824F8F870F38017C3EF33FFEE33FEED2C
:1007E70033FDEC33FCEB33FB994002FB0FD8E9EB0D
:1007F700300105F8D0E0C448B201C0E00AEC4D4E24
:100807004F78207B0070C2EAB5360040BCC0E012CA
:10081700087CD0F0D0E0200104C4C0E0C4B201C01D
:10082700F012060BD0F0D5F0EB02065B120C3A067D
:10083700F85307725806C94C06C54207764F077E1C
:1008470044077E4906DE430784550768460768451F
:1008570007684709245006CD2D06D12E06F42B062E
:10086700D52306F22009122A068D48000006EC3F20
:100877003F3F00790AA2D5200314300509B91002B9
:100887000404B9080104A2D520060250010420027D
:05089700689202B53576
:10089C00005034C0E07F203003197F30A202720672
:1008AC007205500F1208D3C202C206C205C2087FDD
:1008BC0030800F300503E9C0E0120622300503D06A
:1008CC00E0F9D0E0B535CC3005177F30B9100C12FB
:1008DC0006227F583004077F788003B9080312067C
:1008EC00223002057F2D0206227F202008F87F2B64
:1008FC002006F322920280CF286E756C6C29002D95
:10090C0050434958D2011205E73001F8C20178353D
:10091C0030D50108F602068D1205E72403B4050054
:10092C004001E490090B93120613743A120613D289
:07093C000375350402077288
:100BD200BB010689828A83E0225002E722BBFE0221
:090BE200E32289828A83E4932254
:100BEB00BB010CE58229F582E5833AF583E02250BF
:100BFB0006E92582F8E622BBFE06E92582F8E22209
:0D0C0B00E58229F582E5833AF583E4932222
:100C1800BB010689828A83F0225002F722BBFE01BB
:020C2800F322B5
:100C2A00FAE6FB0808E6F925F0F618E6CA3AF622CB
:100C3A00D083D082F8E4937012740193700DA3A349
:100C4A0093F8740193F5828883E47374029368605D
:060C5A00EFA3A3A380DF5D
:100CE300EFB40A07740D120CEE740A309811A89928
:100CF300B8130CC2983098FDA899C298B811F63071
:070D030099FDC299F5992248
:00000001FF
