:080EC20002000000080100001D
:100CA10048000011223344556677880835112233F4
:100CB1004455667788082D000000000000003501CA
:080CC1002700013D00012B0199
:070D0D0054F0FFC4540FFF76
:100D1400EFC39400400CEFD394095006EF2430FE47
:080D24008004EF2437FEAF0646
:010D2C0022A4
:1004F600E4F5257D207F05120E928F28E528B4FFAE
:1005060003E4F5287D1F7F05120E928F2943AB0168
:10051600C2E8C2EA120C77E4FF120E5FE4FF120D86
:10052600B77F02120E0F7F03120E247F03120DCE29
:1005360043AB02E4F50EF50DF50CF50BF512F511CE
:10054600F510F50FF520F5B143C3011205DED2E82B
:1005560043C11043C120E4F5279000087441F0A37D
:100566007454F0A3744DF0A37445F0A3744CF0A337
:100576007420F0A37457F0A37469F0A37472F0A307
:100586007465F0A3746CF0A37465F0A37473F0A3A0
:10059600F0A37420F0A37426F0900019744DF0A314
:1005A6007469F0A37463F0A37472F0A3746FF0A37C
:1005B6007443F0A3746FF0A314F0A37474F0A374DF
:1005C60072F0A3746FF0A3746CF0A3F0A37465F0DB
:0805D600A37472F0A304F022EB
:10079100E5256009C2CAC2AD120ED280FEE52C6009
:1007A1001BAF240524EFB4020DE4F524E52AC3139D
:1007B100F52AFF120F09E52A7002F52CE52BB40189
:1007C10016120F06EF70297B017A0079087F01125A
:1007D1000BB2752B028019E52BB40214120F06EF30
:1007E100700E7B017A0079197F02120BB2E4F52BAE
:1007F100E52714601614604F2402704E20B34B0598
:100801003DE53D643270437527012275B11043C344
:10081100027A00791378137C007D007BFF7A0E79D0
:10082100C27E007F0412010E900EC6E493F520A350
:10083100E493FB740193FA7402938B178A18F519E8
:0B0841001208D875270222E4F53D22C2
:100BEC00E4F527E5B1C4540FFFC39408500F74010A
:100BFC00A807088002C333D8FCF452C322EF24F8B0
:0F0C0C00FF7401A807088002C333D8FCF452C25A
:010C1B0022B6
:10022400E51354F0FFC4540FFF120D14900008EFAF
:10023400F0E513540FFF120D14A3EFF0E51454F07E
:10024400FFC4540FFF120D14A3EFF0E514540FFF75
:10025400120D14A3EFF0A37420F0A3F0A3F0A3F005
:10026400A3F0A3F0A3F0A3F0A3F0A3F0E526120DEE
:100274000DA3EFF0E526540FFF120D14A3EFF0E5E4
:1002840026D394004017E535120D0D900019EFF0B8
:10029400E535540FFF120D14A3EFF08008900019F8
:1002A4007420F0A3F0E526D394014017E536120D2F
:1002B4000D90001BEFF0E536540FFF120D14A3EF61
:1002C400F0800890001B7420F0A3F0E526D394027C
:1002D4004017E537120D0D90001DEFF0E537540F70
:1002E400FF120D14A3EFF0800890001D7420F0A3FA
:1002F400F0E526D394034017E538120D0D90001F46
:10030400EFF0E538540FFF120D14A3EFF0800890BE
:10031400001F7420F0A3F0E526D394044017E539B8
:10032400120D0D900021EFF0E539540FFF120D145A
:10033400A3EFF080089000217420F0A3F0E526D309
:1003440094054017E53A120D0D900023EFF0E53ABD
:10035400540FFF120D14A3EFF080089000237420B3
:10036400F0A3F0E526D394064017E53B120D0D905B
:100374000025EFF0E53B540FFF120D14A3EFF080BE
:10038400089000257420F0A3F0E526D394074016C6
:10039400E53C120D0D900027EFF0E53C540FFF12E1
:0F03A4000D14A3EFF0229000277420F0A3F02295
:100A3D00E5B3540FF526E4FFEFC395265009743541
:100A4D002FF8A6A30F80F1AFBCEF75F008A4FFE55A
:100A5D00BDC4135407FDE5F0F513EF4DF514E4F5A2
:100A6D00B2E5BCB5280EE5BD54E07008E529B535F5
:100A7D0003752501752C017F80120F09752A80E4FD
:0B0A8D00F524120224752B0143B380F6
:010A9800223B
:090E3900540F4480F59053B0EB16
:0B0E4200E4F5560556E556B403F9220E
:10000300EFC4540FFEEF540FFF8E9053B0EB120E5C
:100013004243B0148F9053B0EBC2A2120E42D2A24D
:0300230043B014D3
:0100260022B7
:0A0EAF00EF543F120E3D43B0142231
:100D2D00E4FFF59053B0EBE5905408FE43B0141278
:0F0D3D000E4253B0EB85904A43B014EE70010F95
:010D4C002284
:100E8200EFC4120E3943B014EF120E3943B01422DC
:100DA000EF4480FEC4540F120E3D43B014EF540FB5
:070DB000120E3D43B01422B6
:100E71002041544D454C20574952454C4553532030
:010E81000070
:0D002E0090002A7401F0E4F54275410122B2
:1003B30090002AE014B40E0040030204EF9003C738
:1003C300F82828730203F102040702041D0204380B
:1003D30002044202045502046A02047F02049102E9
:1003E30004A30204B50204C70204D90204E6E4F537
:1003F30042F54390002A7402F07BFF7A0E79717FF5
:1004030001020BB20543E543D3940850030204F5FC
:1004130090002A7403F0E4F53E227F03120EAF0529
:100423003E90002A7404F0E53EC394035003020493
:10043300F57406F022E4F54390002A7405F02205D2
:1004430043E543D3940350030204F590002A740355
:10045300F022120D2DEF70030204F57F02120EAF8E
:1004630090002A7407F022120D2DEF70030204F599
:100473007F2C12000390002A7408F022120D2DEF36
:1004830060707F0812000390002A7409F022120D95
:100493002DEF605E7F0612000390002A740AF0229B
:1004A300120D2DEF604C7F1012000390002A740B85
:1004B300F022120D2DEF603A7F0C12000390002AF8
:1004C300740CF022120D2DEF60287F0112000390AF
:1004D300002A740DF022120D2DEF601690002A747D
:1004E3000EF022120F06EF6009020AEB90002A7445
:0204F30001F016
:0104F50022E4
:100AEB00E54124FE601D04704090003BE0B401071B
:100AFB00E4FF120DA080057F40120DA0E4F53F75B9
:100B0B00410222120D2DEF6023742B253FF582E459
:100B1B003400F583E0FF120E82053FE53FD3940FBF
:0C0B2B00400A12002775410122754101AB
:010B3700229B
:04002700E4F540229A
:030F0600AF4022D7
:080BB2008F4A8B4B8A4C894DE0
:100BBA00E4FFFEAB4BAA4CA94D8F828E8312014DE6
:100BCA00FD742B2FF582E43400F583EDF00FBF009E
:100BDA00010EEF64104E70DB90003BE54AF0754061
:010BEA000109
:010BEB0022E7
:100DFA007580FF7590FF120E4DD2AF120CECB290B7
:050E0A001209D380F97C
:100E4D00E4F5C8F5CDF5CC75CA2F75CBF8D2ADD27A
:020E5D00CA22A7
:03002B00020B388D
:100B3800C0E0C0F0C083C082C0D075D000C000C083
:100B480001C002C003C004C005C006C007C2CF125E
:100B58000EF6B291D007D006D005D004D003D0024B
:0F0B6800D001D000D0D0D082D083D0F0D0E032F6
:03003B00020B773E
:100B7700C0E0C0F0C083C082C0D075D000C000C044
:100B870001C002C003C004C005C006C007120C4A5A
:100B9700D007D006D005D004D003D002D001D000B2
:0B0BA700D0D0D082D083D0F0D0E0325C
:1009D300E55714B40A0050619009E2F8282873021D
:1009E3000A00020A06020A0C020A12020A18020A82
:1009F3001E020A24020A2A020A30020A361203B32A
:100A0300020EE2120791020EE2120DE4020EE2124E
:100A13000F0C020EE2120F0C020EE2120F0C020E6A
:100A2300E2120F0C020EE2120F0C020EE2120F0C76
:0A0A3300020EE2120F0C120EE22276
:100CEC0075570112002E1204F6120EB9120F0C12C7
:100CFC000F0C120F0C120F0C120F0C120F0C020F08
:010D0C000CDA
:040EF6007557012209
:070EE200C2AF0557D2AF2299
:010F0C0022C2
:100C7700E4FFEFC454F0F5B1E4F5B3F5B2F5BCF514
:100C8700BDF5BEF5BFF5C4F5C5F5C6F5C7FEE4F578
:090C9700A30EBE08F90FBF0FD92E
:010CA0002231
:100E5F00EFD3943F500BEFC394004005EF25E0F51F
:020E6F00B422AB
:100DB700EFD394035010EFC39400400A53B59FEF4D
:070DC700C43354E042B522E1
:100E0F00EFD39407500EEFC39400400853B5F1EFA2
:050E1F0025E042B522B0
:100DCE00EFD39407500FEFC39400400953B68FEF43
:060DDE00C454F042B622ED
:100E2400EFD39407500EEFC39400400853B6F1EF8C
:050E340025E042B6229A
:1005DE00E4F5B2F5B3200403020666E50B333333BC
:1005EE0054F8FFE50CC41354072FF5BCE50C333358
:1005FE003354F8FFE50DC41354072FF5BDE50D3345
:10060E00333354F8FFE50EC41354072FF5BEE50E31
:10061E0033333354F8F5BFE50F33333354F8FFE576
:10062E0010C41354072FF5C4E51033333354F8FFB9
:10063E00E511C41354072FF5C5E51133333354F8C0
:10064E00FFE512C41354072FF5C6E51233333354A6
:10065E00F8F5C743B3108035E50BC43354E0FFE51E
:10066E000C131313541F2FF5BCE50CC43354E0F5D3
:10067E00BDE50FC43354E0FFE510131313541F2FC1
:10068E00F5C4E510C43354E0F5C5E4F5C7300505EF
:10069E0043BF04800353BFFB30060343C704300738
:1006AE000343C70130000543B3C0800343B3804307
:0306BE00B308225C
:1008D800C2E8E4F5B28520B330043EE51333333380
:1008E80054F8FFE514C41354072FF5BCE51433334B
:1008F8003354F8FFE515C41354072FF5BDE5153338
:10090800333354F8FFE516C41354072FF5BEE51624
:1009180033333354F8F5BF8019E513C43354E0FF7B
:10092800E514131313541F2FF5BCE514C43354E016
:10093800F5BDE520540FFFEF6016AB170519E51953
:10094800AA187002051814F9120134F5A31F80E7DC
:0509580043B340D2E8AA
:01095D002277
:0206C1008F4E5A
:1006C300AB08AA09A90A900004E5B312018C85B30B
:1006D30020300457E5BC131313541FAB08AA09A910
:1006E3000A12017AE5BCC43354E0FFE5BD131313CA
:1006F300541F4FAB08AA09A90A90000112018CE507
:10070300BDC43354E0FFE5BE131313541F4F9000D1
:100713000212018CE5BEC43354E0FFE5BF1313138B
:10072300541F4F90000312018C8021AFBCEF75F072
:1007330008A4FFE5BDC4135407FDE5F0EF4DFFAB7F
:1007430008AA09A90AE5F08FF01201AEAB08AA09BD
:10075300A90A9000051201CD8B4F8A508951E520DB
:10076300540FFFEF6016AB4F0551E551AA507002CD
:10077300055014F9E5A312017A1F80E7854E213055
:0D07830008012230090443B3802243B3C0B3
:010790002246
:10095E007FFFE5BB603885BB22301004E4FF806466
:10096E003011047F01805D3012047F0280563013F7
:10097E00047F03804F3014047F0480483015047FB9
:10098E000580413016047F06803A7F078036E5BA2F
:10099E00603285BA223010047F0880283011047F1F
:1009AE000980213012047F0A801A3013047F0B80D5
:1009BE00133014047F0C800C3015047F0D8005302D
:0409CE0016027F0E80
:0109D2002202
:100C4A0085B14912095EEFF4601CEFC454F0F5B1A6
:100C5A0085B222301505120A3D8006301603120BA2
:0C0C6A00ECE4F5B28003539BF08549B127
:010C7600225B
:040EFA00539BDF2205
:100E92008F1C8D1F43A22012FFC053A2DFAF1D2261
:100D4D00A2AF9218C2AF8F1C8B1F8D1D43A2201214
:0B0D5D00FFC053A2DFA21892AF7F017D
:010D68002268
:080ECA008F828E83E493FF2266
:040CCA008F828E8304
:100CCE00A2AF9219C2AF751C0D75D108EDF043A2FB
:0D0CDE002012FFC053A2DFA21992AFAF1D7C
:010CEB0022E6
:080A99008E448F458C468D4709
:100AA1008B48A2AF921AC2AF751C0DE4FFEFC39B36
:100AB1005028854782854683E0FE75D108854582A9
:100AC100854483F0E4F5D10547E547700205460505
:100AD10045E545700205440F80D343A22012FFC0B3
:090AE10053A2DFA21A92AFAF1D6F
:010AEA0022E9
:040C1C008F1A8D1B83
:100C2000A2AF921BC2AFE4FD7F08120E92E51AF448
:100C30005207E51B4FF51D751C0743A22012FFC08C
:090C400053A2DFA21B92AF7F0159
:010C49002288
:100D8500A2AF921CC2AFE4F51C8F1E43A22012FF36
:0A0D9500C053A2DFA21C92AF7F0141
:010D9F002231
:060EF000E5D25401FF22CF
:040EA2008F828E832A
:080EA60075D202E0FFE4F5D271
:010EAE002221
:040D69008F828E8364
:100D6D00A2AF921DC2AF75D202EDF075D25075D201
:070D7D00A0A21D92AF7F014F
:010D8400224C
:080ED200C2AF43A22002FF00A1
:080EDA00C2AF43A22002F800A0
:090EB900755501E4F552020EFE2C
:100DE400E55514700D85529053B0FB120EE943B0D3
:060DF400042275550122E6
:060EE900E4FF0FBF03FC53
:010EEF0022E0
:040EFE00E4F55322A2
:040F02007553012200
:030F09008F5222E2
:0300000002084CA7
:0C084C00787FE4F6D8FD75815702089310
:10003E00E709F608DFFA8046E709F208DFFA803EA4
:10004E0088828C83E709F0A3DFFA8032E309F60891
:10005E00DFFA8078E309F208DFFA807088828C83F9
:10006E00E309F0A3DFFA806489828A83E0A3F608AD
:10007E00DFFA805889828A83E0A3F208DFFA804C87
:10008E0080D280FA80C680D4806980F2803380105E
:10009E0080A680EA809A80A880DA80E280CA8033C7
:1000AE0089828A83ECFAE493A3C8C582C8CCC5833F
:1000BE00CCF0A3C8C582C8CCC583CCDFE9DEE7800F
:1000CE000D89828A83E493A3F608DFF9ECFAA9F08E
:1000DE00EDFB2289828A83ECFAE0A3C8C582C8CCE4
:1000EE00C583CCF0A3C8C582C8CCC583CCDFEADEFD
:1000FE00E880DB89828A83E493A3F208DFF980CC5F
:10010E0088F0EF60010E4E60C388F0ED2402B40457
:10011E000050B9F582EB2402B4040050AF232345FE
:06012E00822390008E7395
:10013400BB010689828A83E0225002E722BBFE02C9
:09014400E32289828A83E49322FC
:10014D00BB010CE58229F582E5833AF583E0225067
:10015D0006E92582F8E622BBFE06E92582F8E222B1
:0D016D00E58229F582E5833AF583E49322CB
:10017A00BB010689828A83F0225002F722BBFE0164
:02018A00F3225E
:10018C00F8BB010DE58229F582E5833AF583E8F0A9
:10019C00225006E92582C8F622BBFE05E92582C855
:0201AC00F2223D
:1001AE00BB010A89828A83F0E5F0A3F0225006F79C
:0F01BE0009A7F01922BBFE06F3E5F009F3192299
:1001CD00BB010DE58229F582E5833AF5830202062E
:1001DD005007E92582F80201FDBBFE07E92582F8EB
:1001ED0002020FE58229F582E5833AF583020218B2
:10085800020DFAE493A3F8E493A34003F68001F2AF
:1008680008DFF48029E493A3F85407240CC8C333A1
:10087800C4540F4420C8834004F456800146F6DF70
:10088800E4800B0102040810204080900CA1E47E53
:10089800019360BCA3FF543F30E509541FFEE49365
:1008A800A360010ECF54C025E060A840B8E493A32C
:1008B800FAE493A3F8E493A3C8C582C8CAC583CA57
:1008C800F0A3C8C582C8CAC583CADFE9DEE780BE0F
:010CC900002A
:0901FD00E6FB08E6FA08E6F92227
:09020600E0FBA3E0FAA3E0F922F9
:09020F00E2FB08E2FA08E2F92220
:0C021800E493FB740193FA740293F92242
:00000001FF
